{
  "_format": "hh-sol-artifact-1",
  "contractName": "Voting",
  "sourceName": "contracts/Voting.sol",
  "abi": [
    {
      "inputs": [],
      "stateMutability": "nonpayable",
      "type": "constructor"
    },
    {
      "inputs": [],
      "name": "addMoneyToOwner",
      "outputs": [],
      "stateMutability": "payable",
      "type": "function"
    },
    {
      "inputs": [
        {
          "internalType": "uint256",
          "name": "_uniqueId",
          "type": "uint256"
        },
        {
          "internalType": "string",
          "name": "_systemName",
          "type": "string"
        },
        {
          "internalType": "uint256",
          "name": "_numberOfCandidates",
          "type": "uint256"
        },
        {
          "internalType": "string[]",
          "name": "_candidates",
          "type": "string[]"
        },
        {
          "internalType": "uint256",
          "name": "numberOfDays",
          "type": "uint256"
        },
        {
          "internalType": "string[]",
          "name": "_votersForElection",
          "type": "string[]"
        },
        {
          "internalType": "string",
          "name": "_electionHelderName",
          "type": "string"
        }
      ],
      "name": "createSystem",
      "outputs": [],
      "stateMutability": "nonpayable",
      "type": "function"
    },
    {
      "inputs": [
        {
          "internalType": "uint256",
          "name": "",
          "type": "uint256"
        },
        {
          "internalType": "string",
          "name": "",
          "type": "string"
        }
      ],
      "name": "differentSystemVotes",
      "outputs": [
        {
          "internalType": "uint256",
          "name": "",
          "type": "uint256"
        }
      ],
      "stateMutability": "view",
      "type": "function"
    },
    {
      "inputs": [
        {
          "internalType": "uint256",
          "name": "_uniqueId",
          "type": "uint256"
        }
      ],
      "name": "getCandidates",
      "outputs": [
        {
          "internalType": "string[]",
          "name": "",
          "type": "string[]"
        }
      ],
      "stateMutability": "view",
      "type": "function"
    },
    {
      "inputs": [
        {
          "internalType": "uint256",
          "name": "_uniqueId",
          "type": "uint256"
        }
      ],
      "name": "getVoters",
      "outputs": [
        {
          "internalType": "string[]",
          "name": "",
          "type": "string[]"
        }
      ],
      "stateMutability": "view",
      "type": "function"
    },
    {
      "inputs": [],
      "name": "showBalance",
      "outputs": [
        {
          "internalType": "uint256",
          "name": "",
          "type": "uint256"
        }
      ],
      "stateMutability": "view",
      "type": "function"
    },
    {
      "inputs": [
        {
          "internalType": "uint256",
          "name": "",
          "type": "uint256"
        }
      ],
      "name": "systems",
      "outputs": [
        {
          "internalType": "uint256",
          "name": "uniqueId",
          "type": "uint256"
        },
        {
          "internalType": "string",
          "name": "systemName",
          "type": "string"
        },
        {
          "internalType": "uint256",
          "name": "numberOfCandidates",
          "type": "uint256"
        },
        {
          "internalType": "uint256",
          "name": "votingPeriod",
          "type": "uint256"
        },
        {
          "internalType": "string",
          "name": "electionHelderName",
          "type": "string"
        }
      ],
      "stateMutability": "view",
      "type": "function"
    },
    {
      "inputs": [
        {
          "internalType": "uint256",
          "name": "_uniqueId",
          "type": "uint256"
        },
        {
          "internalType": "string",
          "name": "_candidateName",
          "type": "string"
        },
        {
          "internalType": "string",
          "name": "_candidateAadhar",
          "type": "string"
        }
      ],
      "name": "voteKarteRaho",
      "outputs": [],
      "stateMutability": "nonpayable",
      "type": "function"
    }
  ],
  "bytecode": "0x608060405234801561001057600080fd5b5033600460006101000a81548173ffffffffffffffffffffffffffffffffffffffff021916908373ffffffffffffffffffffffffffffffffffffffff160217905550611957806100616000396000f3fe60806040526004361061007b5760003560e01c806384f3f1481161004e57806384f3f1481461015257806386b646f21461015c578063b4ed7f7614610199578063c2967b5e146101c25761007b565b80630ffca604146100805780633e39a7a5146100c157806381b2d07b146100fe5780638267642d14610129575b600080fd5b34801561008c57600080fd5b506100a760048036038101906100a29190610be0565b6101ff565b6040516100b8959493929190610cac565b60405180910390f35b3480156100cd57600080fd5b506100e860048036038101906100e39190610be0565b610345565b6040516100f59190610e19565b60405180910390f35b34801561010a57600080fd5b50610113610434565b6040516101209190610e3b565b60405180910390f35b34801561013557600080fd5b50610150600480360381019061014b9190611071565b61043c565b005b61015a610537565b005b34801561016857600080fd5b50610183600480360381019061017e9190610be0565b610618565b6040516101909190610e19565b60405180910390f35b3480156101a557600080fd5b506101c060048036038101906101bb9190611183565b610707565b005b3480156101ce57600080fd5b506101e960048036038101906101e4919061120e565b610717565b6040516101f69190610e3b565b60405180910390f35b600360205280600052604060002060009150905080600001549080600101805461022890611299565b80601f016020809104026020016040519081016040528092919081815260200182805461025490611299565b80156102a15780601f10610276576101008083540402835291602001916102a1565b820191906000526020600020905b81548152906001019060200180831161028457829003601f168201915b5050505050908060020154908060040154908060060180546102c290611299565b80601f01602080910402602001604051908101604052809291908181526020018280546102ee90611299565b801561033b5780601f106103105761010080835404028352916020019161033b565b820191906000526020600020905b81548152906001019060200180831161031e57829003601f168201915b5050505050905085565b606060036000838152602001908152602001600020600301805480602002602001604051908101604052809291908181526020016000905b8282101561042957838290600052602060002001805461039c90611299565b80601f01602080910402602001604051908101604052809291908181526020018280546103c890611299565b80156104155780601f106103ea57610100808354040283529160200191610415565b820191906000526020600020905b8154815290600101906020018083116103f857829003601f168201915b50505050508152602001906001019061037d565b505050509050919050565b600047905090565b6000620151808461044d91906112f9565b42610458919061133b565b905060006040518060e001604052808a815260200189815260200188815260200187815260200183815260200185815260200184815250905080600360008b81526020019081526020016000206000820151816000015560208201518160010190816104c4919061151b565b506040820151816002015560608201518160030190805190602001906104eb929190610abc565b506080820151816004015560a0820151816005019080519060200190610512929190610abc565b5060c0820151816006019081610528919061151b565b50905050505050505050505050565b600460009054906101000a900473ffffffffffffffffffffffffffffffffffffffff1673ffffffffffffffffffffffffffffffffffffffff163373ffffffffffffffffffffffffffffffffffffffff16146105c7576040517f08c379a00000000000000000000000000000000000000000000000000000000081526004016105be90611639565b60405180910390fd5b3373ffffffffffffffffffffffffffffffffffffffff166108fc670de0b6b3a76400009081150290604051600060405180830381858888f19350505050158015610615573d6000803e3d6000fd5b50565b606060036000838152602001908152602001600020600501805480602002602001604051908101604052809291908181526020016000905b828210156106fc57838290600052602060002001805461066f90611299565b80601f016020809104026020016040519081016040528092919081815260200182805461069b90611299565b80156106e85780601f106106bd576101008083540402835291602001916106e8565b820191906000526020600020905b8154815290600101906020018083116106cb57829003601f168201915b505050505081526020019060010190610650565b505050509050919050565b610712838383610752565b505050565b600060205281600052604060002081805160208101820180518482526020830160208501208183528095505050505050600091509150505481565b61075c8382610a16565b61079b576040517f08c379a0000000000000000000000000000000000000000000000000000000008152600401610792906116a5565b60405180910390fd5b600015156001600085815260200190815260200160002060003373ffffffffffffffffffffffffffffffffffffffff1673ffffffffffffffffffffffffffffffffffffffff16815260200190815260200160002060009054906101000a900460ff1615151461083f576040517f08c379a000000000000000000000000000000000000000000000000000000000815260040161083690611711565b60405180910390fd5b600015156002600085815260200190815260200160002082604051610864919061176d565b908152602001604051809103902060009054906101000a900460ff161515146108c2576040517f08c379a00000000000000000000000000000000000000000000000000000000081526004016108b990611711565b60405180910390fd5b426003600085815260200190815260200160002060040154101561091b576040517f08c379a0000000000000000000000000000000000000000000000000000000008152600401610912906117d0565b60405180910390fd5b60016000808581526020019081526020016000208360405161093d919061176d565b9081526020016040518091039020600082825461095a919061133b565b92505081905550600180600085815260200190815260200160002060003373ffffffffffffffffffffffffffffffffffffffff1673ffffffffffffffffffffffffffffffffffffffff16815260200190815260200160002060006101000a81548160ff021916908315150217905550600160026000858152602001908152602001600020826040516109ec919061176d565b908152602001604051809103902060006101000a81548160ff021916908315150217905550505050565b600080600090505b6003600085815260200190815260200160002060050180549050811015610ab0578280519060200120600360008681526020019081526020016000206005018281548110610a6f57610a6e6117f0565b5b90600052602060002001604051610a8691906118c2565b604051809103902003610a9d576001915050610ab6565b8080610aa8906118d9565b915050610a1e565b50600090505b92915050565b828054828255906000526020600020908101928215610b04579160200282015b82811115610b03578251829081610af3919061151b565b5091602001919060010190610adc565b5b509050610b119190610b15565b5090565b5b80821115610b355760008181610b2c9190610b39565b50600101610b16565b5090565b508054610b4590611299565b6000825580601f10610b575750610b76565b601f016020900490600052602060002090810190610b759190610b79565b5b50565b5b80821115610b92576000816000905550600101610b7a565b5090565b6000604051905090565b600080fd5b600080fd5b6000819050919050565b610bbd81610baa565b8114610bc857600080fd5b50565b600081359050610bda81610bb4565b92915050565b600060208284031215610bf657610bf5610ba0565b5b6000610c0484828501610bcb565b91505092915050565b610c1681610baa565b82525050565b600081519050919050565b600082825260208201905092915050565b60005b83811015610c56578082015181840152602081019050610c3b565b60008484015250505050565b6000601f19601f8301169050919050565b6000610c7e82610c1c565b610c888185610c27565b9350610c98818560208601610c38565b610ca181610c62565b840191505092915050565b600060a082019050610cc16000830188610c0d565b8181036020830152610cd38187610c73565b9050610ce26040830186610c0d565b610cef6060830185610c0d565b8181036080830152610d018184610c73565b90509695505050505050565b600081519050919050565b600082825260208201905092915050565b6000819050602082019050919050565b600082825260208201905092915050565b6000610d5582610c1c565b610d5f8185610d39565b9350610d6f818560208601610c38565b610d7881610c62565b840191505092915050565b6000610d8f8383610d4a565b905092915050565b6000602082019050919050565b6000610daf82610d0d565b610db98185610d18565b935083602082028501610dcb85610d29565b8060005b85811015610e075784840389528151610de88582610d83565b9450610df383610d97565b925060208a01995050600181019050610dcf565b50829750879550505050505092915050565b60006020820190508181036000830152610e338184610da4565b905092915050565b6000602082019050610e506000830184610c0d565b92915050565b600080fd5b600080fd5b7f4e487b7100000000000000000000000000000000000000000000000000000000600052604160045260246000fd5b610e9882610c62565b810181811067ffffffffffffffff82111715610eb757610eb6610e60565b5b80604052505050565b6000610eca610b96565b9050610ed68282610e8f565b919050565b600067ffffffffffffffff821115610ef657610ef5610e60565b5b610eff82610c62565b9050602081019050919050565b82818337600083830152505050565b6000610f2e610f2984610edb565b610ec0565b905082815260208101848484011115610f4a57610f49610e5b565b5b610f55848285610f0c565b509392505050565b600082601f830112610f7257610f71610e56565b5b8135610f82848260208601610f1b565b91505092915050565b600067ffffffffffffffff821115610fa657610fa5610e60565b5b602082029050602081019050919050565b600080fd5b6000610fcf610fca84610f8b565b610ec0565b90508083825260208201905060208402830185811115610ff257610ff1610fb7565b5b835b8181101561103957803567ffffffffffffffff81111561101757611016610e56565b5b8086016110248982610f5d565b85526020850194505050602081019050610ff4565b5050509392505050565b600082601f83011261105857611057610e56565b5b8135611068848260208601610fbc565b91505092915050565b600080600080600080600060e0888a0312156110905761108f610ba0565b5b600061109e8a828b01610bcb565b975050602088013567ffffffffffffffff8111156110bf576110be610ba5565b5b6110cb8a828b01610f5d565b96505060406110dc8a828b01610bcb565b955050606088013567ffffffffffffffff8111156110fd576110fc610ba5565b5b6111098a828b01611043565b945050608061111a8a828b01610bcb565b93505060a088013567ffffffffffffffff81111561113b5761113a610ba5565b5b6111478a828b01611043565b92505060c088013567ffffffffffffffff81111561116857611167610ba5565b5b6111748a828b01610f5d565b91505092959891949750929550565b60008060006060848603121561119c5761119b610ba0565b5b60006111aa86828701610bcb565b935050602084013567ffffffffffffffff8111156111cb576111ca610ba5565b5b6111d786828701610f5d565b925050604084013567ffffffffffffffff8111156111f8576111f7610ba5565b5b61120486828701610f5d565b9150509250925092565b6000806040838503121561122557611224610ba0565b5b600061123385828601610bcb565b925050602083013567ffffffffffffffff81111561125457611253610ba5565b5b61126085828601610f5d565b9150509250929050565b7f4e487b7100000000000000000000000000000000000000000000000000000000600052602260045260246000fd5b600060028204905060018216806112b157607f821691505b6020821081036112c4576112c361126a565b5b50919050565b7f4e487b7100000000000000000000000000000000000000000000000000000000600052601160045260246000fd5b600061130482610baa565b915061130f83610baa565b925082820261131d81610baa565b91508282048414831517611334576113336112ca565b5b5092915050565b600061134682610baa565b915061135183610baa565b9250828201905080821115611369576113686112ca565b5b92915050565b60008190508160005260206000209050919050565b60006020601f8301049050919050565b600082821b905092915050565b6000600883026113d17fffffffffffffffffffffffffffffffffffffffffffffffffffffffffffffffff82611394565b6113db8683611394565b95508019841693508086168417925050509392505050565b6000819050919050565b600061141861141361140e84610baa565b6113f3565b610baa565b9050919050565b6000819050919050565b611432836113fd565b61144661143e8261141f565b8484546113a1565b825550505050565b600090565b61145b61144e565b611466818484611429565b505050565b5b8181101561148a5761147f600082611453565b60018101905061146c565b5050565b601f8211156114cf576114a08161136f565b6114a984611384565b810160208510156114b8578190505b6114cc6114c485611384565b83018261146b565b50505b505050565b600082821c905092915050565b60006114f2600019846008026114d4565b1980831691505092915050565b600061150b83836114e1565b9150826002028217905092915050565b61152482610c1c565b67ffffffffffffffff81111561153d5761153c610e60565b5b6115478254611299565b61155282828561148e565b600060209050601f8311600181146115855760008415611573578287015190505b61157d85826114ff565b8655506115e5565b601f1984166115938661136f565b60005b828110156115bb57848901518255600182019150602085019450602081019050611596565b868310156115d857848901516115d4601f8916826114e1565b8355505b6001600288020188555050505b505050505050565b7f4e6f7420417574686f72697a6564000000000000000000000000000000000000600082015250565b6000611623600e83610c27565b915061162e826115ed565b602082019050919050565b6000602082019050818103600083015261165281611616565b9050919050565b7f596f7520617265206e6f7420417574686f72697a656420746f20566f74650000600082015250565b600061168f601e83610c27565b915061169a82611659565b602082019050919050565b600060208201905081810360008301526116be81611682565b9050919050565b7f596f75206861766520616c726561647920566f74656400000000000000000000600082015250565b60006116fb601683610c27565b9150611706826116c5565b602082019050919050565b6000602082019050818103600083015261172a816116ee565b9050919050565b600081905092915050565b600061174782610c1c565b6117518185611731565b9350611761818560208601610c38565b80840191505092915050565b6000611779828461173c565b915081905092915050565b7f54686520766f74696e672074696d65206973204f766572210000000000000000600082015250565b60006117ba601883610c27565b91506117c582611784565b602082019050919050565b600060208201905081810360008301526117e9816117ad565b9050919050565b7f4e487b7100000000000000000000000000000000000000000000000000000000600052603260045260246000fd5b600081905092915050565b60008190508160005260206000209050919050565b6000815461184c81611299565b611856818661181f565b945060018216600081146118715760018114611886576118b9565b60ff19831686528115158202860193506118b9565b61188f8561182a565b60005b838110156118b157815481890152600182019150602081019050611892565b838801955050505b50505092915050565b60006118ce828461183f565b915081905092915050565b60006118e482610baa565b91507fffffffffffffffffffffffffffffffffffffffffffffffffffffffffffffffff8203611916576119156112ca565b5b60018201905091905056fea2646970667358221220914309390ac02351820c2b99f8b1b25005de12dcdf0f14a955a9e3e59fa2046c64736f6c63430008110033",
  "linkReferences": {},
  "deployedLinkReferences": {}
}