{
  "_format": "hh-sol-artifact-1",
  "contractName": "Voting",
  "sourceName": "contracts/Voting.sol",
  "abi": [
    {
      "inputs": [],
      "stateMutability": "nonpayable",
      "type": "constructor"
    },
    {
      "inputs": [],
      "name": "addMoneyToOwner",
      "outputs": [],
      "stateMutability": "payable",
      "type": "function"
    },
    {
      "inputs": [
        {
          "internalType": "uint256",
          "name": "_uniqueId",
          "type": "uint256"
        },
        {
          "internalType": "string",
          "name": "_systemName",
          "type": "string"
        },
        {
          "internalType": "uint256",
          "name": "_numberOfCandidates",
          "type": "uint256"
        },
        {
          "internalType": "string[]",
          "name": "_candidates",
          "type": "string[]"
        },
        {
          "internalType": "uint256",
          "name": "numberOfDays",
          "type": "uint256"
        },
        {
          "internalType": "string[]",
          "name": "_votersForElection",
          "type": "string[]"
        },
        {
          "internalType": "string",
          "name": "_electionHelderName",
          "type": "string"
        }
      ],
      "name": "createSystem",
      "outputs": [],
      "stateMutability": "nonpayable",
      "type": "function"
    },
    {
      "inputs": [
        {
          "internalType": "uint256",
          "name": "",
          "type": "uint256"
        },
        {
          "internalType": "string",
          "name": "",
          "type": "string"
        }
      ],
      "name": "differentSystemVotes",
      "outputs": [
        {
          "internalType": "uint256",
          "name": "",
          "type": "uint256"
        }
      ],
      "stateMutability": "view",
      "type": "function"
    },
    {
      "inputs": [
        {
          "internalType": "uint256",
          "name": "_uniqueId",
          "type": "uint256"
        }
      ],
      "name": "getCandidates",
      "outputs": [
        {
          "internalType": "string[]",
          "name": "",
          "type": "string[]"
        }
      ],
      "stateMutability": "view",
      "type": "function"
    },
    {
      "inputs": [
        {
          "internalType": "uint256",
          "name": "_uniqueId",
          "type": "uint256"
        }
      ],
      "name": "getVoters",
      "outputs": [
        {
          "internalType": "string[]",
          "name": "",
          "type": "string[]"
        }
      ],
      "stateMutability": "view",
      "type": "function"
    },
    {
      "inputs": [],
      "name": "showBalance",
      "outputs": [
        {
          "internalType": "uint256",
          "name": "",
          "type": "uint256"
        }
      ],
      "stateMutability": "view",
      "type": "function"
    },
    {
      "inputs": [
        {
          "internalType": "uint256",
          "name": "",
          "type": "uint256"
        }
      ],
      "name": "systems",
      "outputs": [
        {
          "internalType": "uint256",
          "name": "uniqueId",
          "type": "uint256"
        },
        {
          "internalType": "string",
          "name": "systemName",
          "type": "string"
        },
        {
          "internalType": "uint256",
          "name": "numberOfCandidates",
          "type": "uint256"
        },
        {
          "internalType": "uint256",
          "name": "votingPeriod",
          "type": "uint256"
        },
        {
          "internalType": "string",
          "name": "electionHelderName",
          "type": "string"
        }
      ],
      "stateMutability": "view",
      "type": "function"
    },
    {
      "inputs": [
        {
          "internalType": "uint256",
          "name": "_uniqueId",
          "type": "uint256"
        },
        {
          "internalType": "string",
          "name": "_candidateName",
          "type": "string"
        },
        {
          "internalType": "string",
          "name": "_candidateAadhar",
          "type": "string"
        }
      ],
      "name": "voteKarteRaho",
      "outputs": [],
      "stateMutability": "nonpayable",
      "type": "function"
    },
    {
      "inputs": [
        {
          "internalType": "uint256",
          "name": "_uniqueId",
          "type": "uint256"
        },
        {
          "internalType": "string[]",
          "name": "_candidateName",
          "type": "string[]"
        },
        {
          "internalType": "string",
          "name": "_candidateAadhar",
          "type": "string"
        }
      ],
      "name": "voteKarteRahoApproval",
      "outputs": [],
      "stateMutability": "nonpayable",
      "type": "function"
    },
    {
      "inputs": [
        {
          "internalType": "uint256",
          "name": "_uniqueId",
          "type": "uint256"
        },
        {
          "internalType": "string",
          "name": "_candidateName",
          "type": "string"
        },
        {
          "internalType": "string",
          "name": "_candidateAadhar",
          "type": "string"
        },
        {
          "internalType": "uint256",
          "name": "_count",
          "type": "uint256"
        }
      ],
      "name": "voteKarteRahoMultiple",
      "outputs": [],
      "stateMutability": "nonpayable",
      "type": "function"
    }
  ],
  "bytecode": "0x608060405234801561001057600080fd5b5033600460006101000a81548173ffffffffffffffffffffffffffffffffffffffff021916908373ffffffffffffffffffffffffffffffffffffffff1602179055506120cd806100616000396000f3fe6080604052600436106100915760003560e01c806386b646f21161005957806386b646f214610172578063932bbbdc146101af578063b4ed7f76146101d8578063c2967b5e14610201578063fe329d2e1461023e57610091565b80630ffca604146100965780633e39a7a5146100d757806381b2d07b146101145780638267642d1461013f57806384f3f14814610168575b600080fd5b3480156100a257600080fd5b506100bd60048036038101906100b8919061122c565b610267565b6040516100ce9594939291906112f8565b60405180910390f35b3480156100e357600080fd5b506100fe60048036038101906100f9919061122c565b6103ad565b60405161010b9190611465565b60405180910390f35b34801561012057600080fd5b5061012961049c565b6040516101369190611487565b60405180910390f35b34801561014b57600080fd5b50610166600480360381019061016191906116bd565b6104a4565b005b61017061059f565b005b34801561017e57600080fd5b506101996004803603810190610194919061122c565b610680565b6040516101a69190611465565b60405180910390f35b3480156101bb57600080fd5b506101d660048036038101906101d191906117cf565b61076f565b005b3480156101e457600080fd5b506101ff60048036038101906101fa919061186e565b610781565b005b34801561020d57600080fd5b50610228600480360381019061022391906118f9565b610791565b6040516102359190611487565b60405180910390f35b34801561024a57600080fd5b5061026560048036038101906102609190611955565b6107cc565b005b600360205280600052604060002060009150905080600001549080600101805461029090611a0f565b80601f01602080910402602001604051908101604052809291908181526020018280546102bc90611a0f565b80156103095780601f106102de57610100808354040283529160200191610309565b820191906000526020600020905b8154815290600101906020018083116102ec57829003601f168201915b50505050509080600201549080600401549080600601805461032a90611a0f565b80601f016020809104026020016040519081016040528092919081815260200182805461035690611a0f565b80156103a35780601f10610378576101008083540402835291602001916103a3565b820191906000526020600020905b81548152906001019060200180831161038657829003601f168201915b5050505050905085565b606060036000838152602001908152602001600020600301805480602002602001604051908101604052809291908181526020016000905b8282101561049157838290600052602060002001805461040490611a0f565b80601f016020809104026020016040519081016040528092919081815260200182805461043090611a0f565b801561047d5780601f106104525761010080835404028352916020019161047d565b820191906000526020600020905b81548152906001019060200180831161046057829003601f168201915b5050505050815260200190600101906103e5565b505050509050919050565b600047905090565b600062015180846104b59190611a6f565b426104c09190611ab1565b905060006040518060e001604052808a815260200189815260200188815260200187815260200183815260200185815260200184815250905080600360008b815260200190815260200160002060008201518160000155602082015181600101908161052c9190611c91565b50604082015181600201556060820151816003019080519060200190610553929190611108565b506080820151816004015560a082015181600501908051906020019061057a929190611108565b5060c08201518160060190816105909190611c91565b50905050505050505050505050565b600460009054906101000a900473ffffffffffffffffffffffffffffffffffffffff1673ffffffffffffffffffffffffffffffffffffffff163373ffffffffffffffffffffffffffffffffffffffff161461062f576040517f08c379a000000000000000000000000000000000000000000000000000000000815260040161062690611daf565b60405180910390fd5b3373ffffffffffffffffffffffffffffffffffffffff166108fc670de0b6b3a76400009081150290604051600060405180830381858888f1935050505015801561067d573d6000803e3d6000fd5b50565b606060036000838152602001908152602001600020600501805480602002602001604051908101604052809291908181526020016000905b828210156107645783829060005260206000200180546106d790611a0f565b80601f016020809104026020016040519081016040528092919081815260200182805461070390611a0f565b80156107505780601f1061072557610100808354040283529160200191610750565b820191906000526020600020905b81548152906001019060200180831161073357829003601f168201915b5050505050815260200190600101906106b8565b505050509050919050565b61077b848484846107dc565b50505050565b61078c838383610aa0565b505050565b600060205281600052604060002081805160208101820180518482526020830160208501208183528095505050505050600091509150505481565b6107d7838383610d64565b505050565b6107e68483611062565b610825576040517f08c379a000000000000000000000000000000000000000000000000000000000815260040161081c90611e1b565b60405180910390fd5b600015156001600086815260200190815260200160002060003373ffffffffffffffffffffffffffffffffffffffff1673ffffffffffffffffffffffffffffffffffffffff16815260200190815260200160002060009054906101000a900460ff161515146108c9576040517f08c379a00000000000000000000000000000000000000000000000000000000081526004016108c090611e87565b60405180910390fd5b6000151560026000868152602001908152602001600020836040516108ee9190611ee3565b908152602001604051809103902060009054906101000a900460ff1615151461094c576040517f08c379a000000000000000000000000000000000000000000000000000000000815260040161094390611e87565b60405180910390fd5b42600360008681526020019081526020016000206004015410156109a5576040517f08c379a000000000000000000000000000000000000000000000000000000000815260040161099c90611f46565b60405180910390fd5b80600080868152602001908152602001600020846040516109c69190611ee3565b908152602001604051809103902060008282546109e39190611ab1565b92505081905550600180600086815260200190815260200160002060003373ffffffffffffffffffffffffffffffffffffffff1673ffffffffffffffffffffffffffffffffffffffff16815260200190815260200160002060006101000a81548160ff02191690831515021790555060016002600086815260200190815260200160002083604051610a759190611ee3565b908152602001604051809103902060006101000a81548160ff02191690831515021790555050505050565b610aaa8382611062565b610ae9576040517f08c379a0000000000000000000000000000000000000000000000000000000008152600401610ae090611e1b565b60405180910390fd5b600015156001600085815260200190815260200160002060003373ffffffffffffffffffffffffffffffffffffffff1673ffffffffffffffffffffffffffffffffffffffff16815260200190815260200160002060009054906101000a900460ff16151514610b8d576040517f08c379a0000000000000000000000000000000000000000000000000000000008152600401610b8490611e87565b60405180910390fd5b600015156002600085815260200190815260200160002082604051610bb29190611ee3565b908152602001604051809103902060009054906101000a900460ff16151514610c10576040517f08c379a0000000000000000000000000000000000000000000000000000000008152600401610c0790611e87565b60405180910390fd5b4260036000858152602001908152602001600020600401541015610c69576040517f08c379a0000000000000000000000000000000000000000000000000000000008152600401610c6090611f46565b60405180910390fd5b600160008085815260200190815260200160002083604051610c8b9190611ee3565b90815260200160405180910390206000828254610ca89190611ab1565b92505081905550600180600085815260200190815260200160002060003373ffffffffffffffffffffffffffffffffffffffff1673ffffffffffffffffffffffffffffffffffffffff16815260200190815260200160002060006101000a81548160ff02191690831515021790555060016002600085815260200190815260200160002082604051610d3a9190611ee3565b908152602001604051809103902060006101000a81548160ff021916908315150217905550505050565b610d6e8382611062565b610dad576040517f08c379a0000000000000000000000000000000000000000000000000000000008152600401610da490611e1b565b60405180910390fd5b600015156001600085815260200190815260200160002060003373ffffffffffffffffffffffffffffffffffffffff1673ffffffffffffffffffffffffffffffffffffffff16815260200190815260200160002060009054906101000a900460ff16151514610e51576040517f08c379a0000000000000000000000000000000000000000000000000000000008152600401610e4890611e87565b60405180910390fd5b600015156002600085815260200190815260200160002082604051610e769190611ee3565b908152602001604051809103902060009054906101000a900460ff16151514610ed4576040517f08c379a0000000000000000000000000000000000000000000000000000000008152600401610ecb90611e87565b60405180910390fd5b4260036000858152602001908152602001600020600401541015610f2d576040517f08c379a0000000000000000000000000000000000000000000000000000000008152600401610f2490611f46565b60405180910390fd5b60005b8251811015610fac576001600080868152602001908152602001600020848381518110610f6057610f5f611f66565b5b6020026020010151604051610f759190611ee3565b90815260200160405180910390206000828254610f929190611ab1565b925050819055508080610fa490611f95565b915050610f30565b50600180600085815260200190815260200160002060003373ffffffffffffffffffffffffffffffffffffffff1673ffffffffffffffffffffffffffffffffffffffff16815260200190815260200160002060006101000a81548160ff021916908315150217905550600160026000858152602001908152602001600020826040516110389190611ee3565b908152602001604051809103902060006101000a81548160ff021916908315150217905550505050565b600080600090505b60036000858152602001908152602001600020600501805490508110156110fc5782805190602001206003600086815260200190815260200160002060050182815481106110bb576110ba611f66565b5b906000526020600020016040516110d29190612080565b6040518091039020036110e9576001915050611102565b80806110f490611f95565b91505061106a565b50600090505b92915050565b828054828255906000526020600020908101928215611150579160200282015b8281111561114f57825182908161113f9190611c91565b5091602001919060010190611128565b5b50905061115d9190611161565b5090565b5b8082111561118157600081816111789190611185565b50600101611162565b5090565b50805461119190611a0f565b6000825580601f106111a357506111c2565b601f0160209004906000526020600020908101906111c191906111c5565b5b50565b5b808211156111de5760008160009055506001016111c6565b5090565b6000604051905090565b600080fd5b600080fd5b6000819050919050565b611209816111f6565b811461121457600080fd5b50565b60008135905061122681611200565b92915050565b600060208284031215611242576112416111ec565b5b600061125084828501611217565b91505092915050565b611262816111f6565b82525050565b600081519050919050565b600082825260208201905092915050565b60005b838110156112a2578082015181840152602081019050611287565b60008484015250505050565b6000601f19601f8301169050919050565b60006112ca82611268565b6112d48185611273565b93506112e4818560208601611284565b6112ed816112ae565b840191505092915050565b600060a08201905061130d6000830188611259565b818103602083015261131f81876112bf565b905061132e6040830186611259565b61133b6060830185611259565b818103608083015261134d81846112bf565b90509695505050505050565b600081519050919050565b600082825260208201905092915050565b6000819050602082019050919050565b600082825260208201905092915050565b60006113a182611268565b6113ab8185611385565b93506113bb818560208601611284565b6113c4816112ae565b840191505092915050565b60006113db8383611396565b905092915050565b6000602082019050919050565b60006113fb82611359565b6114058185611364565b93508360208202850161141785611375565b8060005b85811015611453578484038952815161143485826113cf565b945061143f836113e3565b925060208a0199505060018101905061141b565b50829750879550505050505092915050565b6000602082019050818103600083015261147f81846113f0565b905092915050565b600060208201905061149c6000830184611259565b92915050565b600080fd5b600080fd5b7f4e487b7100000000000000000000000000000000000000000000000000000000600052604160045260246000fd5b6114e4826112ae565b810181811067ffffffffffffffff82111715611503576115026114ac565b5b80604052505050565b60006115166111e2565b905061152282826114db565b919050565b600067ffffffffffffffff821115611542576115416114ac565b5b61154b826112ae565b9050602081019050919050565b82818337600083830152505050565b600061157a61157584611527565b61150c565b905082815260208101848484011115611596576115956114a7565b5b6115a1848285611558565b509392505050565b600082601f8301126115be576115bd6114a2565b5b81356115ce848260208601611567565b91505092915050565b600067ffffffffffffffff8211156115f2576115f16114ac565b5b602082029050602081019050919050565b600080fd5b600061161b611616846115d7565b61150c565b9050808382526020820190506020840283018581111561163e5761163d611603565b5b835b8181101561168557803567ffffffffffffffff811115611663576116626114a2565b5b80860161167089826115a9565b85526020850194505050602081019050611640565b5050509392505050565b600082601f8301126116a4576116a36114a2565b5b81356116b4848260208601611608565b91505092915050565b600080600080600080600060e0888a0312156116dc576116db6111ec565b5b60006116ea8a828b01611217565b975050602088013567ffffffffffffffff81111561170b5761170a6111f1565b5b6117178a828b016115a9565b96505060406117288a828b01611217565b955050606088013567ffffffffffffffff811115611749576117486111f1565b5b6117558a828b0161168f565b94505060806117668a828b01611217565b93505060a088013567ffffffffffffffff811115611787576117866111f1565b5b6117938a828b0161168f565b92505060c088013567ffffffffffffffff8111156117b4576117b36111f1565b5b6117c08a828b016115a9565b91505092959891949750929550565b600080600080608085870312156117e9576117e86111ec565b5b60006117f787828801611217565b945050602085013567ffffffffffffffff811115611818576118176111f1565b5b611824878288016115a9565b935050604085013567ffffffffffffffff811115611845576118446111f1565b5b611851878288016115a9565b925050606061186287828801611217565b91505092959194509250565b600080600060608486031215611887576118866111ec565b5b600061189586828701611217565b935050602084013567ffffffffffffffff8111156118b6576118b56111f1565b5b6118c2868287016115a9565b925050604084013567ffffffffffffffff8111156118e3576118e26111f1565b5b6118ef868287016115a9565b9150509250925092565b600080604083850312156119105761190f6111ec565b5b600061191e85828601611217565b925050602083013567ffffffffffffffff81111561193f5761193e6111f1565b5b61194b858286016115a9565b9150509250929050565b60008060006060848603121561196e5761196d6111ec565b5b600061197c86828701611217565b935050602084013567ffffffffffffffff81111561199d5761199c6111f1565b5b6119a98682870161168f565b925050604084013567ffffffffffffffff8111156119ca576119c96111f1565b5b6119d6868287016115a9565b9150509250925092565b7f4e487b7100000000000000000000000000000000000000000000000000000000600052602260045260246000fd5b60006002820490506001821680611a2757607f821691505b602082108103611a3a57611a396119e0565b5b50919050565b7f4e487b7100000000000000000000000000000000000000000000000000000000600052601160045260246000fd5b6000611a7a826111f6565b9150611a85836111f6565b9250828202611a93816111f6565b91508282048414831517611aaa57611aa9611a40565b5b5092915050565b6000611abc826111f6565b9150611ac7836111f6565b9250828201905080821115611adf57611ade611a40565b5b92915050565b60008190508160005260206000209050919050565b60006020601f8301049050919050565b600082821b905092915050565b600060088302611b477fffffffffffffffffffffffffffffffffffffffffffffffffffffffffffffffff82611b0a565b611b518683611b0a565b95508019841693508086168417925050509392505050565b6000819050919050565b6000611b8e611b89611b84846111f6565b611b69565b6111f6565b9050919050565b6000819050919050565b611ba883611b73565b611bbc611bb482611b95565b848454611b17565b825550505050565b600090565b611bd1611bc4565b611bdc818484611b9f565b505050565b5b81811015611c0057611bf5600082611bc9565b600181019050611be2565b5050565b601f821115611c4557611c1681611ae5565b611c1f84611afa565b81016020851015611c2e578190505b611c42611c3a85611afa565b830182611be1565b50505b505050565b600082821c905092915050565b6000611c6860001984600802611c4a565b1980831691505092915050565b6000611c818383611c57565b9150826002028217905092915050565b611c9a82611268565b67ffffffffffffffff811115611cb357611cb26114ac565b5b611cbd8254611a0f565b611cc8828285611c04565b600060209050601f831160018114611cfb5760008415611ce9578287015190505b611cf38582611c75565b865550611d5b565b601f198416611d0986611ae5565b60005b82811015611d3157848901518255600182019150602085019450602081019050611d0c565b86831015611d4e5784890151611d4a601f891682611c57565b8355505b6001600288020188555050505b505050505050565b7f4e6f7420417574686f72697a6564000000000000000000000000000000000000600082015250565b6000611d99600e83611273565b9150611da482611d63565b602082019050919050565b60006020820190508181036000830152611dc881611d8c565b9050919050565b7f596f7520617265206e6f7420417574686f72697a656420746f20566f74650000600082015250565b6000611e05601e83611273565b9150611e1082611dcf565b602082019050919050565b60006020820190508181036000830152611e3481611df8565b9050919050565b7f596f75206861766520616c726561647920566f74656400000000000000000000600082015250565b6000611e71601683611273565b9150611e7c82611e3b565b602082019050919050565b60006020820190508181036000830152611ea081611e64565b9050919050565b600081905092915050565b6000611ebd82611268565b611ec78185611ea7565b9350611ed7818560208601611284565b80840191505092915050565b6000611eef8284611eb2565b915081905092915050565b7f54686520766f74696e672074696d65206973204f766572210000000000000000600082015250565b6000611f30601883611273565b9150611f3b82611efa565b602082019050919050565b60006020820190508181036000830152611f5f81611f23565b9050919050565b7f4e487b7100000000000000000000000000000000000000000000000000000000600052603260045260246000fd5b6000611fa0826111f6565b91507fffffffffffffffffffffffffffffffffffffffffffffffffffffffffffffffff8203611fd257611fd1611a40565b5b600182019050919050565b600081905092915050565b60008190508160005260206000209050919050565b6000815461200a81611a0f565b6120148186611fdd565b9450600182166000811461202f576001811461204457612077565b60ff1983168652811515820286019350612077565b61204d85611fe8565b60005b8381101561206f57815481890152600182019150602081019050612050565b838801955050505b50505092915050565b600061208c8284611ffd565b91508190509291505056fea2646970667358221220ec94f2a2d75cb5cb60cc8474a70d67fca1c25d693689efd7b19b684f7a6326b064736f6c63430008110033",
  "linkReferences": {},
  "deployedLinkReferences": {}
}