{
  "_format": "hh-sol-artifact-1",
  "contractName": "Voting",
  "sourceName": "contracts/Voting.sol",
  "abi": [
    {
      "inputs": [],
      "stateMutability": "nonpayable",
      "type": "constructor"
    },
    {
      "inputs": [],
      "name": "addMoneyToOwner",
      "outputs": [],
      "stateMutability": "payable",
      "type": "function"
    },
    {
      "inputs": [
        {
          "internalType": "uint256",
          "name": "_uniqueId",
          "type": "uint256"
        },
        {
          "internalType": "string",
          "name": "_systemName",
          "type": "string"
        },
        {
          "internalType": "uint256",
          "name": "_numberOfCandidates",
          "type": "uint256"
        },
        {
          "internalType": "string[]",
          "name": "_candidates",
          "type": "string[]"
        },
        {
          "internalType": "uint256",
          "name": "numberOfDays",
          "type": "uint256"
        },
        {
          "internalType": "string[]",
          "name": "_votersForElection",
          "type": "string[]"
        },
        {
          "internalType": "string",
          "name": "_electionHelderName",
          "type": "string"
        }
      ],
      "name": "createSystem",
      "outputs": [],
      "stateMutability": "nonpayable",
      "type": "function"
    },
    {
      "inputs": [
        {
          "internalType": "uint256",
          "name": "",
          "type": "uint256"
        },
        {
          "internalType": "string",
          "name": "",
          "type": "string"
        }
      ],
      "name": "differentSystemVotes",
      "outputs": [
        {
          "internalType": "uint256",
          "name": "",
          "type": "uint256"
        }
      ],
      "stateMutability": "view",
      "type": "function"
    },
    {
      "inputs": [
        {
          "internalType": "uint256",
          "name": "_uniqueId",
          "type": "uint256"
        }
      ],
      "name": "getCandidates",
      "outputs": [
        {
          "internalType": "string[]",
          "name": "",
          "type": "string[]"
        }
      ],
      "stateMutability": "view",
      "type": "function"
    },
    {
      "inputs": [
        {
          "internalType": "uint256",
          "name": "_uniqueId",
          "type": "uint256"
        }
      ],
      "name": "getVoters",
      "outputs": [
        {
          "internalType": "string[]",
          "name": "",
          "type": "string[]"
        }
      ],
      "stateMutability": "view",
      "type": "function"
    },
    {
      "inputs": [],
      "name": "showBalance",
      "outputs": [
        {
          "internalType": "uint256",
          "name": "",
          "type": "uint256"
        }
      ],
      "stateMutability": "view",
      "type": "function"
    },
    {
      "inputs": [
        {
          "internalType": "uint256",
          "name": "",
          "type": "uint256"
        }
      ],
      "name": "systems",
      "outputs": [
        {
          "internalType": "uint256",
          "name": "uniqueId",
          "type": "uint256"
        },
        {
          "internalType": "string",
          "name": "systemName",
          "type": "string"
        },
        {
          "internalType": "uint256",
          "name": "numberOfCandidates",
          "type": "uint256"
        },
        {
          "internalType": "uint256",
          "name": "votingPeriod",
          "type": "uint256"
        },
        {
          "internalType": "string",
          "name": "electionHelderName",
          "type": "string"
        }
      ],
      "stateMutability": "view",
      "type": "function"
    },
    {
      "inputs": [
        {
          "internalType": "uint256",
          "name": "_uniqueId",
          "type": "uint256"
        },
        {
          "internalType": "string",
          "name": "_candidateName",
          "type": "string"
        },
        {
          "internalType": "string",
          "name": "_candidateAadhar",
          "type": "string"
        }
      ],
      "name": "voteKarteRaho",
      "outputs": [],
      "stateMutability": "nonpayable",
      "type": "function"
    }
  ],
  "bytecode": "0x608060405234801561001057600080fd5b5033600360006101000a81548173ffffffffffffffffffffffffffffffffffffffff021916908373ffffffffffffffffffffffffffffffffffffffff16021790555061188c806100616000396000f3fe60806040526004361061007b5760003560e01c806384f3f1481161004e57806384f3f1481461015257806386b646f21461015c578063b4ed7f7614610199578063c2967b5e146101c25761007b565b80630ffca604146100805780633e39a7a5146100c157806381b2d07b146100fe5780638267642d14610129575b600080fd5b34801561008c57600080fd5b506100a760048036038101906100a29190610b15565b6101ff565b6040516100b8959493929190610be1565b60405180910390f35b3480156100cd57600080fd5b506100e860048036038101906100e39190610b15565b610345565b6040516100f59190610d4e565b60405180910390f35b34801561010a57600080fd5b50610113610434565b6040516101209190610d70565b60405180910390f35b34801561013557600080fd5b50610150600480360381019061014b9190610fa6565b61043c565b005b61015a610537565b005b34801561016857600080fd5b50610183600480360381019061017e9190610b15565b610618565b6040516101909190610d4e565b60405180910390f35b3480156101a557600080fd5b506101c060048036038101906101bb91906110b8565b610707565b005b3480156101ce57600080fd5b506101e960048036038101906101e49190611143565b610717565b6040516101f69190610d70565b60405180910390f35b6002602052806000526040600020600091509050806000015490806001018054610228906111ce565b80601f0160208091040260200160405190810160405280929190818152602001828054610254906111ce565b80156102a15780601f10610276576101008083540402835291602001916102a1565b820191906000526020600020905b81548152906001019060200180831161028457829003601f168201915b5050505050908060020154908060040154908060060180546102c2906111ce565b80601f01602080910402602001604051908101604052809291908181526020018280546102ee906111ce565b801561033b5780601f106103105761010080835404028352916020019161033b565b820191906000526020600020905b81548152906001019060200180831161031e57829003601f168201915b5050505050905085565b606060026000838152602001908152602001600020600301805480602002602001604051908101604052809291908181526020016000905b8282101561042957838290600052602060002001805461039c906111ce565b80601f01602080910402602001604051908101604052809291908181526020018280546103c8906111ce565b80156104155780601f106103ea57610100808354040283529160200191610415565b820191906000526020600020905b8154815290600101906020018083116103f857829003601f168201915b50505050508152602001906001019061037d565b505050509050919050565b600047905090565b6000620151808461044d919061122e565b426104589190611270565b905060006040518060e001604052808a815260200189815260200188815260200187815260200183815260200185815260200184815250905080600260008b81526020019081526020016000206000820151816000015560208201518160010190816104c49190611450565b506040820151816002015560608201518160030190805190602001906104eb9291906109f1565b506080820151816004015560a08201518160050190805190602001906105129291906109f1565b5060c08201518160060190816105289190611450565b50905050505050505050505050565b600360009054906101000a900473ffffffffffffffffffffffffffffffffffffffff1673ffffffffffffffffffffffffffffffffffffffff163373ffffffffffffffffffffffffffffffffffffffff16146105c7576040517f08c379a00000000000000000000000000000000000000000000000000000000081526004016105be9061156e565b60405180910390fd5b3373ffffffffffffffffffffffffffffffffffffffff166108fc670de0b6b3a76400009081150290604051600060405180830381858888f19350505050158015610615573d6000803e3d6000fd5b50565b606060026000838152602001908152602001600020600501805480602002602001604051908101604052809291908181526020016000905b828210156106fc57838290600052602060002001805461066f906111ce565b80601f016020809104026020016040519081016040528092919081815260200182805461069b906111ce565b80156106e85780601f106106bd576101008083540402835291602001916106e8565b820191906000526020600020905b8154815290600101906020018083116106cb57829003601f168201915b505050505081526020019060010190610650565b505050509050919050565b610712838383610752565b505050565b600060205281600052604060002081805160208101820180518482526020830160208501208183528095505050505050600091509150505481565b61075c838261094b565b61079b576040517f08c379a0000000000000000000000000000000000000000000000000000000008152600401610792906115da565b60405180910390fd5b600015156001600085815260200190815260200160002060003373ffffffffffffffffffffffffffffffffffffffff1673ffffffffffffffffffffffffffffffffffffffff16815260200190815260200160002060009054906101000a900460ff1615151461083f576040517f08c379a000000000000000000000000000000000000000000000000000000000815260040161083690611646565b60405180910390fd5b4260026000858152602001908152602001600020600401541015610898576040517f08c379a000000000000000000000000000000000000000000000000000000000815260040161088f906116b2565b60405180910390fd5b6001600080858152602001908152602001600020836040516108ba919061170e565b908152602001604051809103902060008282546108d79190611270565b92505081905550600180600085815260200190815260200160002060003373ffffffffffffffffffffffffffffffffffffffff1673ffffffffffffffffffffffffffffffffffffffff16815260200190815260200160002060006101000a81548160ff021916908315150217905550505050565b600080600090505b60026000858152602001908152602001600020600501805490508110156109e55782805190602001206002600086815260200190815260200160002060050182815481106109a4576109a3611725565b5b906000526020600020016040516109bb91906117f7565b6040518091039020036109d25760019150506109eb565b80806109dd9061180e565b915050610953565b50600090505b92915050565b828054828255906000526020600020908101928215610a39579160200282015b82811115610a38578251829081610a289190611450565b5091602001919060010190610a11565b5b509050610a469190610a4a565b5090565b5b80821115610a6a5760008181610a619190610a6e565b50600101610a4b565b5090565b508054610a7a906111ce565b6000825580601f10610a8c5750610aab565b601f016020900490600052602060002090810190610aaa9190610aae565b5b50565b5b80821115610ac7576000816000905550600101610aaf565b5090565b6000604051905090565b600080fd5b600080fd5b6000819050919050565b610af281610adf565b8114610afd57600080fd5b50565b600081359050610b0f81610ae9565b92915050565b600060208284031215610b2b57610b2a610ad5565b5b6000610b3984828501610b00565b91505092915050565b610b4b81610adf565b82525050565b600081519050919050565b600082825260208201905092915050565b60005b83811015610b8b578082015181840152602081019050610b70565b60008484015250505050565b6000601f19601f8301169050919050565b6000610bb382610b51565b610bbd8185610b5c565b9350610bcd818560208601610b6d565b610bd681610b97565b840191505092915050565b600060a082019050610bf66000830188610b42565b8181036020830152610c088187610ba8565b9050610c176040830186610b42565b610c246060830185610b42565b8181036080830152610c368184610ba8565b90509695505050505050565b600081519050919050565b600082825260208201905092915050565b6000819050602082019050919050565b600082825260208201905092915050565b6000610c8a82610b51565b610c948185610c6e565b9350610ca4818560208601610b6d565b610cad81610b97565b840191505092915050565b6000610cc48383610c7f565b905092915050565b6000602082019050919050565b6000610ce482610c42565b610cee8185610c4d565b935083602082028501610d0085610c5e565b8060005b85811015610d3c5784840389528151610d1d8582610cb8565b9450610d2883610ccc565b925060208a01995050600181019050610d04565b50829750879550505050505092915050565b60006020820190508181036000830152610d688184610cd9565b905092915050565b6000602082019050610d856000830184610b42565b92915050565b600080fd5b600080fd5b7f4e487b7100000000000000000000000000000000000000000000000000000000600052604160045260246000fd5b610dcd82610b97565b810181811067ffffffffffffffff82111715610dec57610deb610d95565b5b80604052505050565b6000610dff610acb565b9050610e0b8282610dc4565b919050565b600067ffffffffffffffff821115610e2b57610e2a610d95565b5b610e3482610b97565b9050602081019050919050565b82818337600083830152505050565b6000610e63610e5e84610e10565b610df5565b905082815260208101848484011115610e7f57610e7e610d90565b5b610e8a848285610e41565b509392505050565b600082601f830112610ea757610ea6610d8b565b5b8135610eb7848260208601610e50565b91505092915050565b600067ffffffffffffffff821115610edb57610eda610d95565b5b602082029050602081019050919050565b600080fd5b6000610f04610eff84610ec0565b610df5565b90508083825260208201905060208402830185811115610f2757610f26610eec565b5b835b81811015610f6e57803567ffffffffffffffff811115610f4c57610f4b610d8b565b5b808601610f598982610e92565b85526020850194505050602081019050610f29565b5050509392505050565b600082601f830112610f8d57610f8c610d8b565b5b8135610f9d848260208601610ef1565b91505092915050565b600080600080600080600060e0888a031215610fc557610fc4610ad5565b5b6000610fd38a828b01610b00565b975050602088013567ffffffffffffffff811115610ff457610ff3610ada565b5b6110008a828b01610e92565b96505060406110118a828b01610b00565b955050606088013567ffffffffffffffff81111561103257611031610ada565b5b61103e8a828b01610f78565b945050608061104f8a828b01610b00565b93505060a088013567ffffffffffffffff8111156110705761106f610ada565b5b61107c8a828b01610f78565b92505060c088013567ffffffffffffffff81111561109d5761109c610ada565b5b6110a98a828b01610e92565b91505092959891949750929550565b6000806000606084860312156110d1576110d0610ad5565b5b60006110df86828701610b00565b935050602084013567ffffffffffffffff811115611100576110ff610ada565b5b61110c86828701610e92565b925050604084013567ffffffffffffffff81111561112d5761112c610ada565b5b61113986828701610e92565b9150509250925092565b6000806040838503121561115a57611159610ad5565b5b600061116885828601610b00565b925050602083013567ffffffffffffffff81111561118957611188610ada565b5b61119585828601610e92565b9150509250929050565b7f4e487b7100000000000000000000000000000000000000000000000000000000600052602260045260246000fd5b600060028204905060018216806111e657607f821691505b6020821081036111f9576111f861119f565b5b50919050565b7f4e487b7100000000000000000000000000000000000000000000000000000000600052601160045260246000fd5b600061123982610adf565b915061124483610adf565b925082820261125281610adf565b91508282048414831517611269576112686111ff565b5b5092915050565b600061127b82610adf565b915061128683610adf565b925082820190508082111561129e5761129d6111ff565b5b92915050565b60008190508160005260206000209050919050565b60006020601f8301049050919050565b600082821b905092915050565b6000600883026113067fffffffffffffffffffffffffffffffffffffffffffffffffffffffffffffffff826112c9565b61131086836112c9565b95508019841693508086168417925050509392505050565b6000819050919050565b600061134d61134861134384610adf565b611328565b610adf565b9050919050565b6000819050919050565b61136783611332565b61137b61137382611354565b8484546112d6565b825550505050565b600090565b611390611383565b61139b81848461135e565b505050565b5b818110156113bf576113b4600082611388565b6001810190506113a1565b5050565b601f821115611404576113d5816112a4565b6113de846112b9565b810160208510156113ed578190505b6114016113f9856112b9565b8301826113a0565b50505b505050565b600082821c905092915050565b600061142760001984600802611409565b1980831691505092915050565b60006114408383611416565b9150826002028217905092915050565b61145982610b51565b67ffffffffffffffff81111561147257611471610d95565b5b61147c82546111ce565b6114878282856113c3565b600060209050601f8311600181146114ba57600084156114a8578287015190505b6114b28582611434565b86555061151a565b601f1984166114c8866112a4565b60005b828110156114f0578489015182556001820191506020850194506020810190506114cb565b8683101561150d5784890151611509601f891682611416565b8355505b6001600288020188555050505b505050505050565b7f4e6f7420417574686f72697a6564000000000000000000000000000000000000600082015250565b6000611558600e83610b5c565b915061156382611522565b602082019050919050565b600060208201905081810360008301526115878161154b565b9050919050565b7f596f7520617265206e6f7420417574686f72697a656420746f20566f74650000600082015250565b60006115c4601e83610b5c565b91506115cf8261158e565b602082019050919050565b600060208201905081810360008301526115f3816115b7565b9050919050565b7f596f75206861766520616c726561647920566f74656400000000000000000000600082015250565b6000611630601683610b5c565b915061163b826115fa565b602082019050919050565b6000602082019050818103600083015261165f81611623565b9050919050565b7f54686520766f74696e672074696d65206973204f766572210000000000000000600082015250565b600061169c601883610b5c565b91506116a782611666565b602082019050919050565b600060208201905081810360008301526116cb8161168f565b9050919050565b600081905092915050565b60006116e882610b51565b6116f281856116d2565b9350611702818560208601610b6d565b80840191505092915050565b600061171a82846116dd565b915081905092915050565b7f4e487b7100000000000000000000000000000000000000000000000000000000600052603260045260246000fd5b600081905092915050565b60008190508160005260206000209050919050565b60008154611781816111ce565b61178b8186611754565b945060018216600081146117a657600181146117bb576117ee565b60ff19831686528115158202860193506117ee565b6117c48561175f565b60005b838110156117e6578154818901526001820191506020810190506117c7565b838801955050505b50505092915050565b60006118038284611774565b915081905092915050565b600061181982610adf565b91507fffffffffffffffffffffffffffffffffffffffffffffffffffffffffffffffff820361184b5761184a6111ff565b5b60018201905091905056fea26469706673582212208390af33a041f232ad78244bfd144a613efb9b0e71ff6d749dedcabf1975934264736f6c63430008110033",
  "linkReferences": {},
  "deployedLinkReferences": {}
}